:10000000031783168801890103138501870188017D
:10001000FF308600811381128111011581140114B2
:1000200083123D3081008501870188010A30A000DC
:10003000FF30A400A3000B112408A30060200608D1
:10004000A4000B193320231C4120A31C47204D2062
:1000500087000508210203190814031C30201C28FE
:100060008501081008000B113D308100A00B08002D
:100070000A30A000850A10300502031D0800850122
:100080000800241C0800A10A211AA1030800A41CCE
:100090000800A103A10FA103080021080F3982075E
:1000A0003F3406345B344F3466346D347D3407346A
:1000B0007F346F3477347C3439345E34793471343E
:0A00C000A730A200A20B622808007E
:04400E00C430FF3F7C
:00000001FF
