:060000000A128A11142906
:10000800F000030EF1000B1964210C1883218C18E1
:0C0018008C21710E8300F00E700E0900A8
:100200008A010A140F3982073F3406345B344F34B5
:1002100066346D347D3407347F346F3477347C3406
:1002200039345E347934713423212E213B21462127
:100230005121572103138312850188018601A401EE
:100240009A21A3212029031783168801890103130A
:100250008316860185018701880108000313831630
:100260008112811101118110011003138312833057
:1002700081000B1108000313831210149010101644
:1002800090120B308F00DC308E0008001215121710
:100290009216121692159214031383167A30920056
:1002A0000800031383160F138F160F16080003138D
:1002B00083168B178B160B110B170C148C1403134E
:1002C00083120C108C1008000313831283308100FA
:1002D0000B1126187C2924186F29241C74298801E5
:1002E00022088700081479298801230887008814C8
:1002F00079290130A4060800880187010814081034
:1003000088148810080003138312850A0B308F00AD
:10031000DC308E000C10080025189029251C92292D
:1003200006149429061094290130A5060130A6066A
:100330008C1008000313831205080F39A100050E65
:100340000F39A00008000313831220080021A20027
:0803500021080021A3000800B0
:04400E00C430FF3F7C
:00000001FF
