:020000040000FA
:060000000A128A11122809
:10000800FE00030EF6000408F7000A08F800831241
:1000180003137F08F9000A128A1158290A128A1153
:100028001528F001F101F201F301F4018312031321
:10003800B30183010A128A1121286030831603173D
:10004800880089018316031385018701880103301D
:1000580089009F131F129F12831203131F139F17E8
:100068001F08C33914389F00413083120313AF00AF
:10007800AF0B3C283F28831203131F148316031366
:100088000F178F160F160F14811281110115811089
:10009800011464308312031381008B178B160B1124
:1000A8009F148501860187018801F401F301F2019B
:1000B8000330AF002F08F0009F18632864288F28AA
:1000C8001F0CAF002F0C0F39063A031D6C286D2842
:1000D80074281E0885001F08C33914389F00852816
:1000E8001F0CAF002F0C0F39053A031D7C287D2803
:1000F80085281E08AF002F08F1001F08C3391838DB
:100108009F00203083120313AF00AF0B8928000033
:10011800831203139F146430A6000030A7007108EF
:10012800AF00B0012F08A8003008A9000A128A11F0
:10013800EF200A128A11831203132608B10031082E
:10014800F4000A30A6000030A7007408AF00B00120
:100158002F08A0003008A1009C30A200FF30A300A7
:100168000A128A11A9210A128A117108831203132B
:100178002007A80021080318210AA9000A128A11D9
:10018800EF200A128A11831203132608B1003108DE
:10019800F3009C30AF002F08A00074080A128A11DF
:1001A800D0210A128A1183120313B000F630B1006D
:1001B8003108A00073080A128A11D0210A128A1184
:1001C8008312031330077107B2003208F200602867
:1001D8000A128A11122883120313AC01A71FF528EB
:1001E800F628FD28A609A709A60A0319A70AAC013B
:1001F800AC0AA91F002901290A29A809A909A80ADE
:100208000319A90A0130AA002A08AC06AD01AE01FB
:10021800260827040319112912294929AB01AB0A19
:10022800202901300310A60DA70DFF3E031D162936
:100238000130AA002A08AB07A71F2329242915295A
:1002480001300310AD0DAE0DFF3E031D2529270813
:100258002902031D312926082802031C34293529BF
:100268003C292608A8022708031CA903A9022D1463
:1002780001300310A70CA60CFF3E031D3D290130D9
:10028800AB02031D4829492924292C0803194D29A3
:100298004E295329AD09AE09AD0A0319AE0A2E0835
:1002A800A7002D08A60008000B1D5B295C299E29C4
:1002B80008108810081103307006031D6429652989
:1002C80070297408013E84000A128A11E7210A1273
:1002D8008A1187000814902902307006031D7529B9
:1002E800762981297308013E84000A128A11E721C0
:1002F8000A128A118700881490297003031D852922
:10030800862990297208013E84000A128A11E72181
:100318000A128A11870008150130F0027008031DBF
:10032800962997299B290330F5007508F0000B11D1
:10033800643081007908FF0078088A007708840013
:10034800760E8300FE0E7E0E090083120313A401AD
:10035800A501201CB029B129B7292208A407031830
:10036800A50A2308A50701300310A20DA30DFF3E1F
:10037800031DB82901300310A10CA00CFF3E031D7A
:10038800BF2920082104031DCA29CB29AD29250826
:10039800A1002408A000080083120313A300A201EF
:1003A800231CD729D829DC292008A1002108A20765
:1003B8000310A00D0310A30C2308031DE429E5294D
:1003C800D4292208080001308A000408840A820718
:1003D8000034FC346034DA34F2346634B634BE3473
:0603E800E034FE34F6349F
:04400E00D430FF3F6C
:00000001FF
