:060000000A128A11142906
:10000800F000030EF1000B1864210B196A21710E20
:080018008300F00E700E0900D8
:100200008A010A140F3982073F3406345B344F34B5
:1002100066346D347D3407347F346F3477347C3406
:1002200039345E3479347134312140214D215B21E0
:10023000532103138312850188013F30870008147E
:100240000810881488108815881108160812881656
:1002500088120130AA00A001A1019921A021A721A3
:100260002D290317831688018901031383160614A9
:1002700086148501870188018113151495140800DF
:1002800003138316811281110111811401100313CC
:1002900083127D3081000B110800031383160F13A6
:1002A0008F160F160800031383168B178B150B1070
:1002B0008B160B11080003138316161496140313E0
:1002C000831206080B100800061C850A861C85038D
:1002D0000B100800031383127D3081000B112A18C4
:1002E0007929AA187E292A198329AA1988292A1A5C
:1002F0008D2988012508870008149229880126087D
:100300008700881492298801270887008815922978
:100310008801280887000816922988012908870083
:10032000881692290310AA1E97290130AA00AA0D47
:10033000080005088F05A400050E8F05A30008001E
:1003400023080021A50024080021A6000800A00120
:1003500003100508A2006430A202A00A0318AC2909
:10036000A003A20720080021A700B7210800A101CF
:1003700003100A30A202A10A0318BA29A103A20796
:0E03800021080021A80022080021A900080081
:04400E00C430FF3F7C
:00000001FF
