:020000040000FA
:100000000A128A11FB2F00308A000408840A820732
:100010000034203449346E346734723465347334B8
:100020006134723420346334613472346134633443
:100030007434653472342034703461347234613411
:10004000203465346C342034703475346534723443
:1000500074346F34203442343A3420340034203441
:1000600031342934203444346534733470346C347E
:1000700065346734613472342034633461346434F9
:1000800065346E3461342034643465342034633430
:100090006134723461346334743465347234653479
:1000A000733420340D340034203449346E346734D2
:1000B000723465347334613472342034633461349F
:1000C0007234613474346534723420347034613481
:1000D00072346134203465346C34203470347534B7
:1000E0006534723474346F34203441343A342034FB
:1000F00000340D3420345134753465342034613487
:100100006334633469346F346E342034643465345A
:10011000733465346134203465346A34653463344F
:1001200075347434613472343F3420340D34003407
:100130002034333429342034433461346D34623410
:10014000693461347234203450344F34523454346E
:10015000423420340D3420340D3400342034323411
:1001600029342034433461346D3462346934613469
:100170007234203450344F345234543441342034A7
:100180000D34003420344234693465346E347634AE
:1001900065346E34693464346F3420340D34003483
:100E7600831203131A080800F00083160313981C44
:100E8600452F462F402F7008831203139900080040
:100E9600F2005D2F720884000A128A1103200A12DA
:100EA6008A110A128A113F270A128A110130F100AB
:100EB6007108F207720884000A128A1103200A12C6
:100EC6008A11003A031D682F692F4D2F08008316DB
:100ED600031788018901831603138501860183128E
:100EE6000313850186017030831603138F040F14D4
:100EF60018121815831603178715CF308316031398
:100F060099009A018312031398171813181683165B
:100F16000313981671300A128A114B270A128A1186
:100F260027300A128A114B270A128A11A6300A1292
:100F36008A114B270A128A1190300A128A114B27FE
:100F46000A128A11831203138C1EAA2FAB2FA52F08
:100F56000A128A113B270A128A11F3007308F50058
:100F6600E52FBA300A128A114B270A128A118D2FE1
:100F76004C300A128A114B270A128A118312031364
:100F86008C1EC62FC72FC12F0A128A113B270A12A1
:100F96008A118312031385008D2F01300A128A11DC
:100FA6004B270A128A11831203138C1EDB2FDC2FA8
:100FB600D62F0A128A113B270A128A1183120313AB
:100FC60086008D2F7508F300F4017408003A0319A2
:100FD600ED2F8D2F7308313A0319B42F033A0319F5
:100FE600BB2F013A0319D02F8D2F0A128A11002820
:0A0FF600F50183010A128A116A2F27
:04400E00D430FF3F6C
:00000001FF
