:060000000A128A11152905
:10000800F000030EF1000B1810200B1D1B20710EC1
:100018008300F00E700E090003138312061C850A74
:10002800861C85030508002187000B10080056214F
:0E003800A00A20080A3C031D2228A00108008F
:100200008A010A140F3982073F3406345B344F34B5
:1002100066346D347D3407347F34673477347C340E
:1002200039345E3479347134080003178316880139
:100230008901031383160510851005118511061415
:10024000861481131514951400308700003088003F
:1002500044213B215A214B2103138312850186013E
:1002600087018801A2010B1D33295621A20A220809
:1002700000218800332903138316161496140313E0
:10028000831206080B100800031383168F110F1634
:100290008F160F13080003138316811201128111A8
:1002A0000115811401140313831208003D308100ED
:0C02B0000B1108008B178B150B100800B9
:04400E00C430FF3F7C
:00000001FF
