:020000040000FA
:060000000A128A110E280D
:10000800FE00030EF2000408F3000A08F4000A12C6
:100018008A11E4290A128A111128F501F601F7015B
:10002800F80183010A128A111928831603130F177E
:100038008F120F120F1483160317890188010330DA
:10004800831603138600850187018801811315141F
:10005800951483120313850186018701880183168D
:1000680003131614961481128111011181140114BD
:1000780064308312031381000B118B178B158B16B9
:100088006430A0000030A1000508A900AA012908D1
:10009800A2002A08A3000A128A11C1200A128A1192
:1000A800831203132008AB002B08AE006430A000B5
:1000B8000030A1000508A900AA012908A2002A0801
:1000C800A3000A128A1189210A128A1183120313C2
:1000D8002008AB002B08F9000A30A0000030A1006E
:1000E8007908A900AA012908A2002A08A3000A126F
:1000F8008A11C1200A128A11831203132008AB0047
:100108002B08AD000A30A0000030A1007908A90032
:10011800AA012908A2002A08A3000A128A11892123
:100128000A128A11831203132008AB002B08AC00B3
:100138002E080A128A112A210A128A11831203131D
:10014800A9002908F7002D080A128A112A210A1283
:100158008A1183120313A9002908F6002C080A1231
:100168008A112A210A128A1183120313A900290865
:10017800F50044280A128A110E2883120313A601D7
:10018800A11FC728C828CF28A009A109A00A0319B8
:10019800A10AA601A60AA31FD228D328DC28A209EF
:1001A800A309A20A0319A30A0130A4002408A60679
:1001B800A701A801200821040319E328E4281B2922
:1001C800A501A50AF22801300310A00DA10DFF3EDC
:1001D800031DE8280130A4002408A507A11FF5285D
:1001E800F628E72801300310A70DA80DFF3E031DD0
:1001F800F72821082302031D032920082202031CD3
:10020800062907290E292008A2022108031CA30396
:10021800A302271401300310A10CA00CFF3E031DFC
:100228000F290130A502031D1A291B29F6282608C3
:1002380003191F2920292529A709A809A70A03198D
:10024800A80A2808A1002708A000080083120313A1
:10025800A2004E293F308829063088295B3088293A
:100268004F308829663088296D3088297D30882963
:10027800073088297F3088296F3088297730882986
:100288007C308829393088295E3088297930882956
:10029800713088292208A000A1012108003A031919
:1002A800562988292008003A03192E29013A0319EA
:1002B8003029033A03193229013A03193429073A34
:1002C80003193629013A03193829033A03193A2937
:1002D800013A03193C290F3A03193E29013A031937
:1002E8004029033A03194229013A03194429073AD4
:1002F80003194629013A03194829033A03194A29D7
:10030800013A03194C298829080083120313A6010E
:10031800A31F8F2990299729A209A309A20A0319C3
:10032800A30AA601A60AA11F9A299B29A029A00908
:10033800A109A00A0319A10A200821040319A52963
:10034800A629D529A501A50AB42901300310A00DB5
:10035800A10DFF3E031DAA290130A4002408A5070A
:10036800A11FB729B829A92921082302031DBE29DD
:1003780020082202031CC129C229C8292008A20278
:100388002108031CA303A30201300310A10CA00C35
:10039800FF3E031DC9290130A502031DD429D52913
:1003A800B82926080319D929DA29DF29A209A309B6
:1003B800A20A0319A30A2308A1002208A000080022
:1003C8000B1CE729E829F929831203130618ED29DC
:1003D800EE29F2290130F000700885078618F52902
:1003E800F629F829013085020B100B1DFC29FD297F
:1003F8002A2A64308312031381000B11172A8801FB
:100408007708870008140130F0007008F8072A2AD6
:100418008801760887008814072A880175088700EC
:100428000815F8012A2A7808F000F1017108003A45
:1004380003191F2A2A2A7008003A0319032A013AC5
:1004480003190C2A033A0319112A2A2A74088A0064
:0E04580073088400720E8300FE0E7E0E0900F3
:04400E00D620FF3F7A
:00000001FF
